:0F148A007DA57C06ED1D70011C144C70F7DFF181
:011499002230
:060F5B008B158A168917B0
:100F6100EF640160030210F2752C01F52DF52EF5E9
:100F71002FF530F531F5327F28785BE4F608DFFC98
:100F81007F287833E4F608DFFCAB15AA16A91712FF
:100F91000BCAD394C040037F012290000A120BE3D5
:100FA100B40104D2BC8002C2BC120BCAFFE5985442
:100FB1003F4FF598EF64C06008EF64406003021092
:100FC10076900002120D5A7F007E607D547C0012E3
:100FD1000C968F1B8E1A8D198C18E4FFFE7D01FC77
:100FE100AB1BAA1AA919A818C3120D3640037F0218
:100FF10022C3E4951BF51BE4951AF51A74019519A2
:10100100F519E49518F518AB15AA16A91790000162
:10101100120BE3FB6401702CC28E538EFE5389BF09
:101021005389CF438E40AF1BAE1AAD19AC18780867
:10103100120D478F8D851B8BC2AB5389BF538FFD1B
:10104100D28E8065EB64027029538EEF438E01537B
:101051008EF7438E04AF1BAE1AAD19AC1878081287
:101061000D478FD6851BD753AFFB538EF7438E1099
:1010710080377F0222AB15AA16A917120BCAFF707F
:1010810013900008120BE3B40105438E20801A531C
:101091008EDF8015EFB48011900008120BE3B401CC
:1010A10005438780800353877FAB15AA16A9179044
:1010B1000009120BE3B40104D2AC8002C2AC90006F
:1010C10007120BE3B40104D29C8002C29C90000B76
:1010D100120BE354C0FFE5A2543F4FF5A290000C60
:1010E100120BE3B4010543971080035397EF7F0080
:0310F100227F0358
:0110F40022D9
:10143200745B252EF8A607052EE52EC394284003DB
:0D144200E4F52EE52F7005752F01D29922DB
:10147700120BCAFF600C121432740129F9E43AFA0C
:0314870080EE22D2
:0300230002133D88
:10133D00C0E0C0D075D000C000C00730981DC29865
:10134D00E5327017E530C394284003753000AF3097
:10135D00053074332FF8A699753105309921C2994E
:10136D00E52D652E6016745B252DF8E6F599052D96
:10137D00E52DC394284008752D008003752F00D0EE
:08138D0007D000D0D0D0E032FF
:10140A00535443313546324B3630533220554152CC
:10141A00543120546573742050726772616D6D6522
:08142A00210D0A00610D0A000A
:10139500E4F508750901750A01F50B750C01750D64
:1013A500FF750EE0750F01FB7A007908FF120DC07D
:1013B500E4F508750901750A01F50B750C01750D44
:1013C500FF750EE0750F01FB7A0079087F01020DAC
:0113D500C057
:1013D600750840750902750D00750C84750B03754B
:1013E6000A00750F01E4F510751101F512F513F5F4
:1013F60014FB7A0079087F01120F5B7BFF7A147960
:041406000A0214774B
:0810F5008F0B8E0A8D098C0897
:1010FD00E4F51BF51A7519487518447FCD7ECC7D26
:10110D00CC7C3EAB0BAA0AA909A808120A9E500D69
:10111D00752400752501E4F528F5298076AF1BAE01
:10112D001AAD19AC18AB0BAA0AA909A8081208F830
:10113D007B667A6679E6783F120A01AB07AA06A9A3
:10114D0005A804E4FFFE7DFA7C43120A018F138E7D
:10115D00128D118C10E4FBFA797A7844120A018F02
:10116D00138E128D118C107F007EC07DA87C4BAB31
:10117D0013AA12A911A8101208F8A804A905AA0605
:10118D00AB07E4FFFE7D807C47120803120B498EEE
:10119D00288F297FCD7ECC7DCC7C3EAB0FAA0EA9AE
:1011AD000DA80C120A9E500C752600752701E4F54A
:1011BD002AF52B22AF1BAE1AAD19AC18AB0FAA0E28
:1011CD00A90DA80C1208F87B667A6679E6783F12AD
:1011DD000A01AB07AA06A905A804E4FFFE7DFA7C67
:1011ED0043120A018F178E168D158C14E4FBFA79B4
:1011FD007A7844120A018F178E168D158C147F0084
:10120D007EC07DA87C4BAB17AA16A915A814120891
:10121D00F8A804A905AA06AB07E4FFFE7D807C476C
:0A122D00120803120B498E2A8F2BC2
:011237002294
:10123800E4F51FF51E751D80751C3FF523F5227515
:10124800218075203FF524752501F524752501C2F7
:1012580091C2935391EF4392101213951213D6D261
:101268008ED2AFE531D3940050030213231531E534
:10127800316003021323E530D39400500302132096
:101288007835E624D0FFE434FFFE7C007D0A120C9A
:10129800107836E624D0FDEC34FFCD2FCD3EFCE4AB
:1012A800120B10E4FBFA79207841120A018F1F8E85
:1012B8001E8D1D8C1C7838E624D0FFE434FFFE7C9C
:1012C800007D0A120C107839E624D0FDEC34FFCDED
:1012D8002FCD3EFCE4120B10E4FBFA792078411282
:1012E8000A018F238E228D218C207834E624D0FFAA
:1012F800E434FF4F24FF92907837E624D0FFE4349B
:10130800FF4F24FF9292E4F524F525F526F5277B77
:10131800FF7A14792E121477E4F53085230F85228D
:101328000E85210D85200CAF1FAE1EAD1DAC1C1205
:0513380010F502126B2C
:03000B0002144F8D
:10144F00C0E0E52545247002B291E528F58C852989
:04145F008AD0E0321D
:03001B0002146369
:10146300C0E0E52745267002B293E52AF58D852B6A
:041473008BD0E03208
:030063000214A6DE
:0114A6003213
:100DC000AD07EDD3940240037F0122ED6003020ED4
:100DD00054C28C900002120BE3B40104D2A9800229
:100DE000C2A9900001120BE3B40104D2B98002C27F
:100DF000B9120BCAFED3940340037F0222E5895443
:100E0000FC4EF589900003120BE3FFB40103538EEF
:100E10007FEF7003438E80EFB402054389048003A3
:100E20005389FB900004120BE3B40105438F01804A
:100E300003538FFE900005120C22E5F0F58C900014
:100E400005120C22F58A900007120BE3B40102D2BE
:100E50008C7F0022ED64016003020EDFC28E9000E1
:100E600002120BE3B40104D2AB8002C2AB900001CA
:100E7000120BE3B40104D2BB8002C2BB120BCAFE48
:100E8000C3940340037F0222E58954CF4EF5899035
:100E90000003120BE3FFB40103538EBFEF70034353
:100EA0008E40EFB4020543894080035389BF900010
:100EB00004120BE3B40105438F028003538FFD90AE
:100EC0000005120C22E5F0F58D900005120C22F5BC
:100ED0008B900007120BE3B40102D28E7F0022ED4B
:100EE00064027074538EEF900002120BE3B401059C
:100EF00043AF04800353AFFB900003120BE3FED318
:100F0000940240037F0222EEB40103538EFB900053
:100F100003120BE37003438E04900003120BE3B43F
:100F20000205438E088003538EF7900004120BE3F2
:100F3000B40105438F048003538FFB900005120C0E
:100F400022FDACF0ECF5D68DD7900007120BE3B480
:0B0F50000103438E107F00227F02226D
:10080000020BB5E86480F8E933E83360110460F066
:10081000ED33EC337009E8FCE9FDEAFEEBFF22045E
:1008200060DED3EB9FEA9EE99DE8C2E78CF0C2F759
:1008300095F0400CE8CCF8E9CDF9EACEFAEBCFFB25
:10084000120B8085D0F05804700320D5B3E80470F3
:10085000075002B2D5020BBF92D5EC0460F7E4CC8E
:10086000C0E0C398F8603B94186008400DD0E0FBEE
:10087000020B97E4FBFAC9FC8028E830E406E4C9DF
:10088000FBE4CAFCE830E305E4C9CACBFCE8540742
:100890006010F8C3E913F9EA13FAEB13FBEC13FC4D
:1008A000D8F130F52FC3E49CFCEF9BFFEE9AFEEDF0
:1008B00099FDD0E0FBEF4E4D4C701222DB03020B92
:1008C000BCEC2CFCEF33FFEE33FEED33FDED30E7F7
:1008D000EB020B97EF2BFFEE3AFEED39FDD0E0FB7C
:1008E00050130BBB0003020BBFED13FDEE13FEEF25
:0808F00013FFEC13FC020B974F
:1008F800EC4D6011E8497017ED33EC3304600DE4FA
:10090800FCFFFEFD22E933E8330470F8020BB51250
:100918000B8058046009E4CC248150062850090251
:100928000BBF284003020BBCC0E0EB4A7044B980FF
:1009380006D0E0FB020BABEF4E701CBD8008EBFF4E
:10094800EAFEE9FD80EBE98DF0A4FEE5F00209E19D
:10095800E9CDF9EAFEEBFFEF89F0A4FCE5F0CE89DA
:10096800F0A42EFFE435F0CD89F0A42DFEE435F097
:100978008067EF4E7005BD80D780C3EF8BF0A4ACC5
:10098800F0EE8BF0A42CFCE435F0F8EF8AF0A42C00
:10099800E5F038FCE433CB8DF0A42CFCE5F03BF813
:1009A800EE8AF0A42CFCE5F038F8E433CF89F0A403
:1009B8002CFCE5F038CF3400CE89F0A42FFFE5F009
:1009C8003EFEE433C98DF0A42EFEE5F039CD8AF061
:1009D800A42FFFE5F03EFEE43DFD33D0E0FB5007D9
:1009E8000BBB000F020BBFEC2CFCEF33FFEE33FE0A
:0609F800ED33FD020B9738
:1009FE00020BBFEC5D046005E859047003020BB5F1
:100A0E00120B80580460F6EC4860F2EC7004FDFEA8
:100A1E00FF22C860DB2481C85009C39860025006CB
:100A2E00020BBC9850CAF582E9294B4A7005AB827D
:100A3E00020BAB75F0007C1A7880C3EF9BEE9AED3B
:100A4E0099400DC3EF9BFFEE9AFEED99FDE842F043
:100A5E00DC23ACF0D0E0FFD0E0FED0E0FDAB822096
:100A6E00E7101BEB60BAEC2CFCEF33FFEE33FEED20
:100A7E0033FD020B97E803F830E705C0F075F00080
:100A8E00EF2FFFEE33FEED33FD40B830E7C280AA04
:100A9E0074F8CC6480CCC86480C8F582046043C30B
:100AAE00EB9FF5F0EA9E42F0E99D42F0E89C45F09E
:100ABE0060305018E5825FFFE582F42B5582FB50C3
:100ACE00210ABA001D09B90019088016E5825BFBE0
:100ADE00E582F42F5582FF50090EBE00050DBD00B4
:100AEE00010CC3EB9FF5F0EA9E42F0E99D42F0E85F
:0D0AFE009C45F06007CC4820E701B3EC22D6
:100B0B0075F020800E75F010800575F0087D007E65
:100B1B00007F003392D530D503120D28EC334010F3
:100B2B00EF33FFEE33FEED33FDEC33FCD5F0ED226E
:0E0B3B00E5F0247EA2D513CC92E7CDCEFF22AA
:100B4900EDD2E7CD33EC3392D524814006E4FFFEA4
:100B5900FDFC22FCE4CFCECDCC24E0501174FF8003
:100B6900EDC3CC13CCCD13CDCE13CECF13CF0470A0
:070B7900F030D5DE020D286B
:100B8000E9D2E7C933E833F892D5EDD2E7CD33ECBB
:070B900033FC5002B2D52234
:100B9700EC30E7100FBF000C0EBE00080DBD0004BF
:100BA7000BEB6014A2D5EB13FCED92E7FD2274FF6B
:100BB700FCFDFEFF22E480F8A2D574FF13FC7D80C4
:030BC700E480EFD8
:0300000002149A4D
:0C149A00787FE4F6D8FD758182021238DC
:100BCA00BB010689828A83E0225002E722BBFE0229
:090BDA00E32289828A83E493225C
:100BE300BB010CE58229F582E5833AF583E02250C7
:100BF30006E92582F8E622BBFE06E92582F8E22211
:0D0C0300E58229F582E5833AF583E493222A
:100C1000EF8DF0A4A8F0CF8CF0A428CE8DF0A42EF8
:020C2000FE22B2
:100C2200BB0110E58229F582E5833AF583E0F5F010
:100C3200A3E0225009E92582F886F008E622BBFEED
:100C42000AE92582F8E2F5F008E222E5832AF58333
:080C5200E993F5F0A3E99322F8
:100C5A0075F008758200EF2FFFEE33FECD33CDCC51
:100C6A0033CCC58233C5829BED9AEC99E5829840D4
:100C7A000CF582EE9BFEED9AFDEC99FC0FD5F0D6B1
:100C8A00E4CEFBE4CDFAE4CCF9A88222B800C1B9DB
:100C9A000059BA002DEC8BF084CFCECDFCE5F0CB19
:100CAA00F97818EF2FFFEE33FEED33FDEC33FCEB52
:100CBA0033FB10D703994004EB99FB0FD8E5E4F90D
:100CCA00FA227818EF2FFFEE33FEED33FDEC33FCFA
:100CDA00C933C910D7059BE99A4007EC9BFCE99AEE
:100CEA00F90FD8E0E4C9FAE4CCFB2275F010EF2F33
:100CFA00FFEE33FEED33FDCC33CCC833C810D70733
:100D0A009BEC9AE899400AED9BFDEC9AFCE899F86D
:0E0D1A000FD5F0DAE4CDFBE4CCFAE4C8F92200
:0E0D2800C3E49FFFE49EFEE49DFDE49CFC22DC
:100D3600EB9FF5F0EA9E42F0E99D42F0E89C45F013
:010D4600228A
:100D4700E8600FECC313FCED13FDEE13FEEF13FF8A
:030D5700D8F122AE
:100D5A00BB010DE58229F582E5833AF583020D97F9
:100D6A005007E92582F8020D8ABBFE07E92582F8B9
:100D7A00020DA3E58229F582E5833AF583020DB0D7
:0D0D8A00E6FB08E6F908E6FA08E6CBF822D9
:0C0D9700E0F8A3E0F9A3E0FAA3E0FB22DF
:0D0DA300E2FB08E2F908E2FA08E2CBF822D0
:100DB000E493F8740193F9740293FA740393FB2299
:00000001FF
