:0F0CAB007DA57C06ED1D70011C144C70F7DFF168
:010CBA002217
:0607C1008B168A1789184F
:1007C700EF64016003020958752D01F52EF52FF529
:1007D70030F531F532F5337F28785CE4F608DFFC35
:1007E7007F287834E4F608DFFCAB16AA17A918129D
:1007F7000430D394C040037F012290000A120449B9
:10080700B40104D2BC8002C2BC120430FFE5985484
:100817003F4FF598EF64C06008EF6440600302083B
:10082700DC9000021205C07F007E607D547C0012C0
:1008370004FC8F1C8E1B8D1A8C19E4FFFE7D01FCB6
:10084700AB1CAA1BA91AA819C312059C40037F0257
:1008570022C3E4951CF51CE4951BF51B7401951A3E
:10086700F51AE49519F519AB16AA17A918900001FE
:10087700120449FB6401702CC28E538EFE5389BF4C
:100887005389CF438E40AF1CAE1BAD1AAC19780805
:100897001205AD8F8D851C8BC2AB5389BF538FFD5E
:1008A700D28E8065EB64027029538EEF438E01531D
:1008B7008EF7438E04AF1CAE1BAD1AAC1978081225
:1008C70005AD8FD6851CD753AFFB538EF7438E10DC
:1008D70080377F0222AB16AA17A918120430FF70BF
:1008E70013900008120449B40105438E20801A535F
:1008F7008EDF8015EFB48011900008120449B4010F
:1009070005438780800353877FAB16AA17A91890E2
:100917000009120449B40104D2AC8002C2AC9000B1
:1009270007120449B40104D29C8002C29C90000BB8
:1009370012044954C0FFE5A2543F4FF5A290000CA2
:10094700120449B4010543971080035397EF7F00C2
:03095700227F03F9
:01095A00227A
:100C5300745C252FF8A607052FE52FC394284003BE
:0D0C6300E4F52FE5307005753001D29922BF
:100C9800120430FF600C120C53740129F9E43AFA7B
:030CA80080EE22B9
:03002300020B9637
:100B9600C0E0C0D075D000C000C00730981DC29814
:100BA600E5337017E531C394284003753100AF3142
:100BB600053174342FF8A699753205309921C299FA
:100BC600E52E652F6016745C252EF8E6F599052E40
:100BD600E52EC394284008752E008003753000D09A
:080BE60007D000D0D0D0E032AE
:100C2F00535443313546324B3630533220554152AF
:100C3F00543120546573742050726772616D6D6505
:040C4F00210D0A0069
:100BEE00E4F509750A01750B01F50C750D01750E0D
:100BFE00FF750FE0751001FB7A007909FF120626CA
:100C0E00E4F509750A01750B01F50C750D01750EEC
:100C1E00FF750FE0751001FB7A0079097F0102065E
:010C2E00269F
:10002600750940750A02750E00750DC2750C0175CD
:100036000B00751001E4F511751201F513F514F5B1
:1000460015FB7A0079097F011207C17BFF7A0C79CB
:040056002F020C98D1
:08095B008F0C8E0B8D0A8C0934
:10096300E4F51CF51B751A487519447FCD7ECC7DC3
:10097300CC7C3EAB0CAA0BA90AA8091203045008AD
:100983007525007526018076AF1CAE1BAD1AAC1918
:10099300AB0CAA0BA90AA80912015E7B667A6679D9
:1009A300E6783F120267AB07AA06A905A804E4FF8D
:1009B300FE7DFA7C431202678F148E138D128C1105
:1009C300E4FBFA797A78441202678F148E138D123E
:1009D3008C117F007EC07DA87C4BAB14AA13A91297
:1009E300A81112015EA804A905AA06AB07E4FFFE3D
:1009F3007D807C471200691203AF8E298F2A7FCD39
:100A03007ECC7DCC7C3EAB10AA0FA90EA80D1203A1
:100A130004500775270075280122AF1CAE1BAD1AC1
:100A2300AC19AB10AA0FA90EA80D12015E7B667A52
:100A33006679E6783F120267AB07AA06A905A80400
:100A4300E4FFFE7DFA7C431202678F188E178D1622
:100A53008C15E4FBFA797A78441202678F188E17A3
:100A63008D168C157F007EC07DA87C4BAB18AA1712
:100A7300A916A81512015EA804A905AA06AB07E4E6
:100A8300FFFE7D807C471200691203AF8E2B8F2CF3
:010A93002240
:100A9400E4F520F51F751E80751D3FF524F52375BB
:100AA400228075213FF525752601F525752601C29D
:100AB40091C2935391EF439210120BEE120026D27F
:100AC4008ED2AF7F64120CABE532D3940050030294
:100AD4000B771532E5326003020B77E531D39400CE
:100AE4005003020B74E4F508E508C39531500E7405
:100AF400342508F8E6FF120C53050880EB7835E638
:100B040024D0FFE434FFFE7C007D0A12047678369C
:100B1400E624D0FDEC34FFCD2FCD3EFCE412037669
:100B2400E4FBFA792078411202678F208E1F8D1E14
:100B34008C1D7837E624D0FFE434FFFE7C007D0A68
:100B44001204767838E624D0FDEC34FFCD2FCD3E68
:100B5400FCE4120376E4FBFA792078411202678FF1
:100B6400248E238D228C21E4F525F526F527F528FE
:100B7400E4F53185241085230F85220E85210DAFE0
:100B840020AE1FAD1EAC1D12095B7F64120CAB02BC
:020B94000AC78E
:03000B00020C7074
:100C7000C0E0E52645257002B291E529F58C852A6C
:040C80008AD0E03204
:03001B00020C8450
:100C8400C0E0E52845277002B293E52BF58D852C4D
:040C94008BD0E032EF
:0300630002000395
:0100030032CA
:10062600AD07EDD3940240037F0122ED600302067D
:10063600BAC28C900002120449B40104D2A9800205
:10064600C2A9900001120449B40104D2B98002C2C1
:10065600B9120430FED3940340037F0222E5895485
:10066600FC4EF589900003120449FFB40103538E32
:100676007FEF7003438E80EFB40205438904800345
:100686005389FB900004120449B40105438F01808D
:1006960003538FFE900005120488E5F0F58C900058
:1006A60005120488F58A900007120449B40102D2A3
:1006B6008C7F0022ED64016003020745C28E900024
:1006C60002120449B40104D2AB8002C2AB9000010D
:1006D600120449B40104D2BB8002C2BB120430FE2C
:1006E600C3940340037F0222E58954CF4EF58990D7
:1006F6000003120449FFB40103538EBFEF70034396
:100706008E40EFB4020543894080035389BF9000B1
:1007160004120449B40105438F028003538FFD90F0
:100726000005120488E5F0F58D900005120488F5A1
:100736008B900007120449B40102D28E7F0022ED8D
:1007460064027074538EEF900002120449B40105DE
:1007560043AF04800353AFFB900003120449FED35A
:10076600940240037F0222EEB40103538EFB9000F5
:10077600031204497003438E04900003120449B423
:100786000205438E088003538EF790000412044935
:10079600B40105438F048003538FFB9000051204B8
:1007A60088FDACF0ECF5D68DD7900007120449B45D
:0B07B6000103438E107F00227F02220F
:1000660002041BE86480F8E933E83360110460F0A9
:10007600ED33EC337009E8FCE9FDEAFEEBFF220400
:1000860060DED3EB9FEA9EE99DE8C2E78CF0C2F7FB
:1000960095F0400CE8CCF8E9CDF9EACEFAEBCFFBC7
:1000A6001203E685D0F05804700320D5B3E8047037
:1000B600075002B2D502042592D5EC0460F7E4CCD1
:1000C600C0E0C398F8603B94186008400DD0E0FB90
:1000D6000203FDE4FBFAC9FC8028E830E406E4C923
:1000E600FBE4CAFCE830E305E4C9CACBFCE85407E4
:1000F6006010F8C3E913F9EA13FAEB13FBEC13FCEF
:10010600D8F130F52FC3E49CFCEF9BFFEE9AFEED91
:1001160099FDD0E0FBEF4E4D4C701222DB0302043A
:1001260022EC2CFCEF33FFEE33FEED33FDED30E732
:10013600EB0203FDEF2BFFEE3AFEED39FDD0E0FBBF
:1001460050130BBB0003020425ED13FDEE13FEEF67
:0801560013FFEC13FC0203FD92
:10015E00EC4D6011E8497017ED33EC3304600DE49B
:10016E00FCFFFEFD22E933E8330470F802041B1293
:10017E0003E658046009E4CC248150062850090295
:10018E000425284003020422C0E0EB4A7044B980E3
:10019E0006D0E0FB020411EF4E701CBD8008EBFF91
:1001AE00EAFEE9FD80EBE98DF0A4FEE5F0020247E0
:1001BE00E9CDF9EAFEEBFFEF89F0A4FCE5F0CE897C
:1001CE00F0A42EFFE435F0CD89F0A42DFEE435F039
:1001DE008067EF4E7005BD80D780C3EF8BF0A4AC67
:1001EE00F0EE8BF0A42CFCE435F0F8EF8AF0A42CA2
:1001FE00E5F038FCE433CB8DF0A42CFCE5F03BF8B5
:10020E00EE8AF0A42CFCE5F038F8E433CF89F0A4A4
:10021E002CFCE5F038CF3400CE89F0A42FFFE5F0AA
:10022E003EFEE433C98DF0A42EFEE5F039CD8AF002
:10023E00A42FFFE5F03EFEE43DFD33D0E0FB50077A
:10024E000BBB000F020425EC2CFCEF33FFEE33FE4C
:06025E00ED33FD0203FD7B
:10026400020425EC5D046005E85904700302041BD4
:100274001203E6580460F6EC4860F2EC7004FDFEEC
:10028400FF22C860DB2481C85009C398600250066D
:100294000204229850CAF582E9294B4A7005AB82C0
:1002A40002041175F0007C1A7880C3EF9BEE9AED7E
:1002B40099400DC3EF9BFFEE9AFEED99FDE842F0E5
:1002C400DC23ACF0D0E0FFD0E0FED0E0FDAB822038
:1002D400E7101BEB60BAEC2CFCEF33FFEE33FEEDC2
:1002E40033FD0203FDE803F830E705C0F075F000C4
:1002F400EF2FFFEE33FEED33FD40B830E7C280AAA6
:1003040074F8CC6480CCC86480C8F582046043C3AC
:10031400EB9FF5F0EA9E42F0E99D42F0E89C45F03F
:1003240060305018E5825FFFE582F42B5582FB5064
:10033400210ABA001D09B90019088016E5825BFB81
:10034400E582F42F5582FF50090EBE00050DBD0055
:10035400010CC3EB9FF5F0EA9E42F0E99D42F0E800
:0D0364009C45F06007CC4820E701B3EC2277
:1003710075F020800E75F010800575F0087D007E07
:10038100007F003392D530D50312058EEC33401037
:10039100EF33FFEE33FEED33FDEC33FCD5F0ED2210
:0E03A100E5F0247EA2D513CC92E7CDCEFF224C
:1003AF00EDD2E7CD33EC3392D524814006E4FFFE46
:1003BF00FDFC22FCE4CFCECDCC24E0501174FF80A5
:1003CF00EDC3CC13CCCD13CDCE13CECF13CF047042
:0703DF00F030D5DE02058EAF
:1003E600E9D2E7C933E833F892D5EDD2E7CD33EC5D
:0703F60033FC5002B2D522D6
:1003FD00EC30E7100FBF000C0EBE00080DBD000461
:10040D000BEB6014A2D5EB13FCED92E7FD2274FF0C
:10041D00FCFDFEFF22E480F8A2D574FF13FC7D8065
:03042D00E480EF79
:0300000002000EED
:0C000E00787FE4F6D8FD758183020A9427
:10043000BB010689828A83E0225002E722BBFE02CA
:09044000E32289828A83E49322FD
:10044900BB010CE58229F582E5833AF583E0225068
:1004590006E92582F8E622BBFE06E92582F8E222B2
:0D046900E58229F582E5833AF583E49322CC
:10047600EF8DF0A4A8F0CF8CF0A428CE8DF0A42E9A
:02048600FE2254
:10048800BB0110E58229F582E5833AF583E0F5F0B2
:10049800A3E0225009E92582F886F008E622BBFE8F
:1004A8000AE92582F8E2F5F008E222E5832AF583D5
:0804B800E993F5F0A3E993229A
:1004C00075F008758200EF2FFFEE33FECD33CDCCF3
:1004D00033CCC58233C5829BED9AEC99E582984076
:1004E0000CF582EE9BFEED9AFDEC99FC0FD5F0D653
:1004F000E4CEFBE4CDFAE4CCF9A88222B800C1B97D
:100500000059BA002DEC8BF084CFCECDFCE5F0CBBA
:10051000F97818EF2FFFEE33FEED33FDEC33FCEBF3
:1005200033FB10D703994004EB99FB0FD8E5E4F9AE
:10053000FA227818EF2FFFEE33FEED33FDEC33FC9B
:10054000C933C910D7059BE99A4007EC9BFCE99A8F
:10055000F90FD8E0E4C9FAE4CCFB2275F010EF2FD4
:10056000FFEE33FEED33FDCC33CCC833C810D707D4
:100570009BEC9AE899400AED9BFDEC9AFCE899F80F
:0E0580000FD5F0DAE4CDFBE4CCFAE4C8F922A2
:0E058E00C3E49FFFE49EFEE49DFDE49CFC227E
:10059C00EB9FF5F0EA9E42F0E99D42F0E89C45F0B5
:0105AC00222C
:1005AD00E8600FECC313FCED13FDEE13FEEF13FF2C
:0305BD00D8F12250
:1005C000BB010DE58229F582E5833AF5830205FD3D
:1005D0005007E92582F80205F0BBFE07E92582F8FD
:1005E000020609E58229F582E5833AF583020616BB
:0D05F000E6FB08E6F908E6FA08E6CBF8227B
:0C05FD00E0F8A3E0F9A3E0FAA3E0FB2281
:0D060900E2FB08E2F908E2FA08E2CBF82271
:10061600E493F8740193F9740293FA740393FB223A
:00000001FF
