:0F0CD9007DA57C06ED1D70011C144C70F7DFF13A
:010CE80022E9
:0607C1008B158A16891752
:1007C700EF64016003020958752C01F52DF52EF52C
:1007D7002FF530F531F5327F28785BE4F608DFFC3A
:1007E7007F287833E4F608DFFCAB15AA16A91712A1
:1007F7000430D394C040037F012290000A120449B9
:10080700B40104D2BC8002C2BC120430FFE5985484
:100817003F4FF598EF64C06008EF6440600302083B
:10082700DC9000021205C07F007E607D547C0012C0
:1008370004FC8F1B8E1A8D198C18E4FFFE7D01FCBA
:10084700AB1BAA1AA919A818C312059C40037F025B
:1008570022C3E4951BF51BE4951AF51A7401951943
:10086700F519E49518F518AB15AA16A91790000104
:10087700120449FB6401702CC28E538EFE5389BF4C
:100887005389CF438E40AF1BAE1AAD19AC18780809
:100897001205AD8F8D851B8BC2AB5389BF538FFD5F
:1008A700D28E8065EB64027029538EEF438E01531D
:1008B7008EF7438E04AF1BAE1AAD19AC1878081229
:1008C70005AD8FD6851BD753AFFB538EF7438E10DD
:1008D70080377F0222AB15AA16A917120430FF70C2
:1008E70013900008120449B40105438E20801A535F
:1008F7008EDF8015EFB48011900008120449B4010F
:1009070005438780800353877FAB15AA16A91790E5
:100917000009120449B40104D2AC8002C2AC9000B1
:1009270007120449B40104D29C8002C29C90000BB8
:1009370012044954C0FFE5A2543F4FF5A290000CA2
:10094700120449B4010543971080035397EF7F00C2
:03095700227F03F9
:01095A00227A
:100C8100745B252EF8A607052EE52EC39428400394
:0D0C9100E4F52EE52F7005752F01D2992294
:100CC600120430FF600C120C81740129F9E43AFA1F
:030CD60080EE228B
:03002300020BB419
:100BB400C0E0C0D075D000C000C00730981DC298F6
:100BC400E5327017E530C394284003753000AF3028
:100BD400053074332FF8A699753105309921C299DF
:100BE400E52D652E6016745B252DF8E6F599052D27
:100BF400E52DC394284008752D008003752F00D07F
:080C040007D000D0D0D0E0328F
:10002600535443313546324B3630533220554152C4
:10003600543120546573742050726772616D6D651A
:10004600210D0A00782C30210D0A00792C30210D63
:0B0056000A004675636B31210D0A00A3
:100C0C00E4F508750901750A01F50B750C01750DF4
:100C1C00FF750EE0750F01FB7A007908FF120626AE
:100C2C00E4F508750901750A01F50B750C01750DD4
:100C3C00FF750EE0750F01FB7A0079087F01020643
:010C4C002681
:100C4D00750840750902750D00750C84750B0375DB
:100C5D000A00750F01E4F510751101F512F513F584
:100C6D0014FB7A0079087F011207C17BFF7A0079A6
:040C7D0026020CC679
:08095B008F0B8E0A8D098C0838
:10096300E4F51BF51A7519487518447FCD7ECC7DC7
:10097300CC7C3EAB0BAA0AA909A8081203045016A3
:10098300752400752501E4F528F5297BFF7A0079A4
:100993004A120CC68076AF1BAE1AAD19AC18AB0B5E
:1009A300AA0AA909A80812015E7B667A6679E67825
:1009B3003F120267AB07AA06A905A804E4FFFE7D60
:1009C300FA7C431202678F138E128D118C10E4FB95
:1009D300FA797A78441202678F138E128D118C1074
:1009E3007F007EC07DA87C4BAB13AA12A911A8106F
:1009F30012015EA804A905AA06AB07E4FFFE7D80E9
:100A03007C471200691203AF8E288F297FCD7ECCDD
:100A13007DCC7C3EAB0FAA0EA90DA80C120304508B
:100A230014752400752501E4F52AF52B7BFF7A0064
:100A33007951020CC6AF1BAE1AAD19AC18AB0FAA95
:100A43000EA90DA80C12015E7B667A6679E6783FE3
:100A5300120267AB07AA06A905A804E4FFFE7DFA04
:100A63007C431202678F178E168D158C14E4FBFAE4
:100A7300797A78441202678F178E168D158C147F3E
:100A8300007EC07DA87C4BAB17AA16A915A814122B
:100A9300015EA804A905AA06AB07E4FFFE7D807CDE
:0B0AA300471200691203AF8E2A8F2B50
:010AAE002225
:100AAF00E4F51FF51E751D80751C3FF523F52275A6
:100ABF00218075203FF524752501F524752501C288
:100ACF0091C2935391EF439210120C0C120C4DD212
:100ADF008ED2AFE531D394005003020B9A1531E556
:100AEF00316003020B9AE530D394005003020B9749
:100AFF007835E624D0FFE434FFFE7C007D0A120433
:100B0F00767836E624D0FDEC34FFCD2FCD3EFCE4D5
:100B1F00120376E4FBFA792078411202678F1F8E59
:100B2F001E8D1D8C1C7838E624D0FFE434FFFE7C2C
:100B3F00007D0A1204767839E624D0FDEC34FFCD1F
:100B4F002FCD3EFCE4120376E4FBFA7920784112B4
:100B5F0002678F238E228D218C207834E624D0FFDC
:100B6F00E434FF4F24FF92907837E624D0FFE4342B
:100B7F00FF4F24FF9292E4F524F525F526F5277B08
:100B8F00FF7A007958120CC6E4F53085230F8522C1
:100B9F000E85210D85200CAF1FAE1EAD1DAC1C1296
:050BAF00095B020AE2EF
:03000B00020C9E46
:100C9E00C0E0E52545247002B291E528F58C852942
:040CAE008AD0E032D6
:03001B00020CB222
:100CB200C0E0E52745267002B293E52AF58D852B23
:040CC2008BD0E032C1
:0300630002000395
:0100030032CA
:10062600AD07EDD3940240037F0122ED600302067D
:10063600BAC28C900002120449B40104D2A9800205
:10064600C2A9900001120449B40104D2B98002C2C1
:10065600B9120430FED3940340037F0222E5895485
:10066600FC4EF589900003120449FFB40103538E32
:100676007FEF7003438E80EFB40205438904800345
:100686005389FB900004120449B40105438F01808D
:1006960003538FFE900005120488E5F0F58C900058
:1006A60005120488F58A900007120449B40102D2A3
:1006B6008C7F0022ED64016003020745C28E900024
:1006C60002120449B40104D2AB8002C2AB9000010D
:1006D600120449B40104D2BB8002C2BB120430FE2C
:1006E600C3940340037F0222E58954CF4EF58990D7
:1006F6000003120449FFB40103538EBFEF70034396
:100706008E40EFB4020543894080035389BF9000B1
:1007160004120449B40105438F028003538FFD90F0
:100726000005120488E5F0F58D900005120488F5A1
:100736008B900007120449B40102D28E7F0022ED8D
:1007460064027074538EEF900002120449B40105DE
:1007560043AF04800353AFFB900003120449FED35A
:10076600940240037F0222EEB40103538EFB9000F5
:10077600031204497003438E04900003120449B423
:100786000205438E088003538EF790000412044935
:10079600B40105438F048003538FFB9000051204B8
:1007A60088FDACF0ECF5D68DD7900007120449B45D
:0B07B6000103438E107F00227F02220F
:1000660002041BE86480F8E933E83360110460F0A9
:10007600ED33EC337009E8FCE9FDEAFEEBFF220400
:1000860060DED3EB9FEA9EE99DE8C2E78CF0C2F7FB
:1000960095F0400CE8CCF8E9CDF9EACEFAEBCFFBC7
:1000A6001203E685D0F05804700320D5B3E8047037
:1000B600075002B2D502042592D5EC0460F7E4CCD1
:1000C600C0E0C398F8603B94186008400DD0E0FB90
:1000D6000203FDE4FBFAC9FC8028E830E406E4C923
:1000E600FBE4CAFCE830E305E4C9CACBFCE85407E4
:1000F6006010F8C3E913F9EA13FAEB13FBEC13FCEF
:10010600D8F130F52FC3E49CFCEF9BFFEE9AFEED91
:1001160099FDD0E0FBEF4E4D4C701222DB0302043A
:1001260022EC2CFCEF33FFEE33FEED33FDED30E732
:10013600EB0203FDEF2BFFEE3AFEED39FDD0E0FBBF
:1001460050130BBB0003020425ED13FDEE13FEEF67
:0801560013FFEC13FC0203FD92
:10015E00EC4D6011E8497017ED33EC3304600DE49B
:10016E00FCFFFEFD22E933E8330470F802041B1293
:10017E0003E658046009E4CC248150062850090295
:10018E000425284003020422C0E0EB4A7044B980E3
:10019E0006D0E0FB020411EF4E701CBD8008EBFF91
:1001AE00EAFEE9FD80EBE98DF0A4FEE5F0020247E0
:1001BE00E9CDF9EAFEEBFFEF89F0A4FCE5F0CE897C
:1001CE00F0A42EFFE435F0CD89F0A42DFEE435F039
:1001DE008067EF4E7005BD80D780C3EF8BF0A4AC67
:1001EE00F0EE8BF0A42CFCE435F0F8EF8AF0A42CA2
:1001FE00E5F038FCE433CB8DF0A42CFCE5F03BF8B5
:10020E00EE8AF0A42CFCE5F038F8E433CF89F0A4A4
:10021E002CFCE5F038CF3400CE89F0A42FFFE5F0AA
:10022E003EFEE433C98DF0A42EFEE5F039CD8AF002
:10023E00A42FFFE5F03EFEE43DFD33D0E0FB50077A
:10024E000BBB000F020425EC2CFCEF33FFEE33FE4C
:06025E00ED33FD0203FD7B
:10026400020425EC5D046005E85904700302041BD4
:100274001203E6580460F6EC4860F2EC7004FDFEEC
:10028400FF22C860DB2481C85009C398600250066D
:100294000204229850CAF582E9294B4A7005AB82C0
:1002A40002041175F0007C1A7880C3EF9BEE9AED7E
:1002B40099400DC3EF9BFFEE9AFEED99FDE842F0E5
:1002C400DC23ACF0D0E0FFD0E0FED0E0FDAB822038
:1002D400E7101BEB60BAEC2CFCEF33FFEE33FEEDC2
:1002E40033FD0203FDE803F830E705C0F075F000C4
:1002F400EF2FFFEE33FEED33FD40B830E7C280AAA6
:1003040074F8CC6480CCC86480C8F582046043C3AC
:10031400EB9FF5F0EA9E42F0E99D42F0E89C45F03F
:1003240060305018E5825FFFE582F42B5582FB5064
:10033400210ABA001D09B90019088016E5825BFB81
:10034400E582F42F5582FF50090EBE00050DBD0055
:10035400010CC3EB9FF5F0EA9E42F0E99D42F0E800
:0D0364009C45F06007CC4820E701B3EC2277
:1003710075F020800E75F010800575F0087D007E07
:10038100007F003392D530D50312058EEC33401037
:10039100EF33FFEE33FEED33FDEC33FCD5F0ED2210
:0E03A100E5F0247EA2D513CC92E7CDCEFF224C
:1003AF00EDD2E7CD33EC3392D524814006E4FFFE46
:1003BF00FDFC22FCE4CFCECDCC24E0501174FF80A5
:1003CF00EDC3CC13CCCD13CDCE13CECF13CF047042
:0703DF00F030D5DE02058EAF
:1003E600E9D2E7C933E833F892D5EDD2E7CD33EC5D
:0703F60033FC5002B2D522D6
:1003FD00EC30E7100FBF000C0EBE00080DBD000461
:10040D000BEB6014A2D5EB13FCED92E7FD2274FF0C
:10041D00FCFDFEFF22E480F8A2D574FF13FC7D8065
:03042D00E480EF79
:0300000002000EED
:0C000E00787FE4F6D8FD758182020AAF0D
:10043000BB010689828A83E0225002E722BBFE02CA
:09044000E32289828A83E49322FD
:10044900BB010CE58229F582E5833AF583E0225068
:1004590006E92582F8E622BBFE06E92582F8E222B2
:0D046900E58229F582E5833AF583E49322CC
:10047600EF8DF0A4A8F0CF8CF0A428CE8DF0A42E9A
:02048600FE2254
:10048800BB0110E58229F582E5833AF583E0F5F0B2
:10049800A3E0225009E92582F886F008E622BBFE8F
:1004A8000AE92582F8E2F5F008E222E5832AF583D5
:0804B800E993F5F0A3E993229A
:1004C00075F008758200EF2FFFEE33FECD33CDCCF3
:1004D00033CCC58233C5829BED9AEC99E582984076
:1004E0000CF582EE9BFEED9AFDEC99FC0FD5F0D653
:1004F000E4CEFBE4CDFAE4CCF9A88222B800C1B97D
:100500000059BA002DEC8BF084CFCECDFCE5F0CBBA
:10051000F97818EF2FFFEE33FEED33FDEC33FCEBF3
:1005200033FB10D703994004EB99FB0FD8E5E4F9AE
:10053000FA227818EF2FFFEE33FEED33FDEC33FC9B
:10054000C933C910D7059BE99A4007EC9BFCE99A8F
:10055000F90FD8E0E4C9FAE4CCFB2275F010EF2FD4
:10056000FFEE33FEED33FDCC33CCC833C810D707D4
:100570009BEC9AE899400AED9BFDEC9AFCE899F80F
:0E0580000FD5F0DAE4CDFBE4CCFAE4C8F922A2
:0E058E00C3E49FFFE49EFEE49DFDE49CFC227E
:10059C00EB9FF5F0EA9E42F0E99D42F0E89C45F0B5
:0105AC00222C
:1005AD00E8600FECC313FCED13FDEE13FEEF13FF2C
:0305BD00D8F12250
:1005C000BB010DE58229F582E5833AF5830205FD3D
:1005D0005007E92582F80205F0BBFE07E92582F8FD
:1005E000020609E58229F582E5833AF583020616BB
:0D05F000E6FB08E6F908E6FA08E6CBF8227B
:0C05FD00E0F8A3E0F9A3E0FAA3E0FB2281
:0D060900E2FB08E2F908E2FA08E2CBF82271
:10061600E493F8740193F9740293FA740393FB223A
:00000001FF
